{
  "_format": "hh-sol-artifact-1",
  "contractName": "MyToken",
  "sourceName": "contracts/MyToken.sol",
  "abi": [
    {
      "inputs": [
        {
          "internalType": "string",
          "name": "_name",
          "type": "string"
        },
        {
          "internalType": "string",
          "name": "symbol",
          "type": "string"
        }
      ],
      "stateMutability": "nonpayable",
      "type": "constructor"
    },
    {
      "anonymous": false,
      "inputs": [
        {
          "indexed": true,
          "internalType": "address",
          "name": "owner",
          "type": "address"
        },
        {
          "indexed": true,
          "internalType": "address",
          "name": "spender",
          "type": "address"
        },
        {
          "indexed": false,
          "internalType": "uint256",
          "name": "value",
          "type": "uint256"
        }
      ],
      "name": "Approval",
      "type": "event"
    },
    {
      "anonymous": false,
      "inputs": [
        {
          "indexed": true,
          "internalType": "address",
          "name": "previousOwner",
          "type": "address"
        },
        {
          "indexed": true,
          "internalType": "address",
          "name": "newOwner",
          "type": "address"
        }
      ],
      "name": "OwnershipTransferred",
      "type": "event"
    },
    {
      "anonymous": false,
      "inputs": [
        {
          "indexed": true,
          "internalType": "address",
          "name": "from",
          "type": "address"
        },
        {
          "indexed": true,
          "internalType": "address",
          "name": "to",
          "type": "address"
        },
        {
          "indexed": false,
          "internalType": "uint256",
          "name": "value",
          "type": "uint256"
        }
      ],
      "name": "Transfer",
      "type": "event"
    },
    {
      "inputs": [
        {
          "internalType": "address",
          "name": "",
          "type": "address"
        }
      ],
      "name": "addressTime",
      "outputs": [
        {
          "internalType": "uint256",
          "name": "",
          "type": "uint256"
        }
      ],
      "stateMutability": "view",
      "type": "function"
    },
    {
      "inputs": [
        {
          "internalType": "address",
          "name": "owner",
          "type": "address"
        },
        {
          "internalType": "address",
          "name": "spender",
          "type": "address"
        }
      ],
      "name": "allowance",
      "outputs": [
        {
          "internalType": "uint256",
          "name": "",
          "type": "uint256"
        }
      ],
      "stateMutability": "view",
      "type": "function"
    },
    {
      "inputs": [
        {
          "internalType": "address",
          "name": "spender",
          "type": "address"
        },
        {
          "internalType": "uint256",
          "name": "amount",
          "type": "uint256"
        }
      ],
      "name": "approve",
      "outputs": [
        {
          "internalType": "bool",
          "name": "",
          "type": "bool"
        }
      ],
      "stateMutability": "nonpayable",
      "type": "function"
    },
    {
      "inputs": [
        {
          "internalType": "address",
          "name": "account",
          "type": "address"
        }
      ],
      "name": "balanceOf",
      "outputs": [
        {
          "internalType": "uint256",
          "name": "",
          "type": "uint256"
        }
      ],
      "stateMutability": "view",
      "type": "function"
    },
    {
      "inputs": [
        {
          "internalType": "uint256",
          "name": "_amount",
          "type": "uint256"
        }
      ],
      "name": "buy",
      "outputs": [],
      "stateMutability": "payable",
      "type": "function"
    },
    {
      "inputs": [],
      "name": "decimals",
      "outputs": [
        {
          "internalType": "uint8",
          "name": "",
          "type": "uint8"
        }
      ],
      "stateMutability": "view",
      "type": "function"
    },
    {
      "inputs": [
        {
          "internalType": "address",
          "name": "spender",
          "type": "address"
        },
        {
          "internalType": "uint256",
          "name": "subtractedValue",
          "type": "uint256"
        }
      ],
      "name": "decreaseAllowance",
      "outputs": [
        {
          "internalType": "bool",
          "name": "",
          "type": "bool"
        }
      ],
      "stateMutability": "nonpayable",
      "type": "function"
    },
    {
      "inputs": [],
      "name": "faucet",
      "outputs": [],
      "stateMutability": "nonpayable",
      "type": "function"
    },
    {
      "inputs": [
        {
          "internalType": "address",
          "name": "spender",
          "type": "address"
        },
        {
          "internalType": "uint256",
          "name": "addedValue",
          "type": "uint256"
        }
      ],
      "name": "increaseAllowance",
      "outputs": [
        {
          "internalType": "bool",
          "name": "",
          "type": "bool"
        }
      ],
      "stateMutability": "nonpayable",
      "type": "function"
    },
    {
      "inputs": [
        {
          "internalType": "address",
          "name": "to",
          "type": "address"
        },
        {
          "internalType": "uint256",
          "name": "amount",
          "type": "uint256"
        }
      ],
      "name": "mint",
      "outputs": [],
      "stateMutability": "nonpayable",
      "type": "function"
    },
    {
      "inputs": [],
      "name": "name",
      "outputs": [
        {
          "internalType": "string",
          "name": "",
          "type": "string"
        }
      ],
      "stateMutability": "view",
      "type": "function"
    },
    {
      "inputs": [],
      "name": "owner",
      "outputs": [
        {
          "internalType": "address",
          "name": "",
          "type": "address"
        }
      ],
      "stateMutability": "view",
      "type": "function"
    },
    {
      "inputs": [],
      "name": "renounceOwnership",
      "outputs": [],
      "stateMutability": "nonpayable",
      "type": "function"
    },
    {
      "inputs": [],
      "name": "symbol",
      "outputs": [
        {
          "internalType": "string",
          "name": "",
          "type": "string"
        }
      ],
      "stateMutability": "view",
      "type": "function"
    },
    {
      "inputs": [],
      "name": "totalSupply",
      "outputs": [
        {
          "internalType": "uint256",
          "name": "",
          "type": "uint256"
        }
      ],
      "stateMutability": "view",
      "type": "function"
    },
    {
      "inputs": [
        {
          "internalType": "address",
          "name": "to",
          "type": "address"
        },
        {
          "internalType": "uint256",
          "name": "amount",
          "type": "uint256"
        }
      ],
      "name": "transfer",
      "outputs": [
        {
          "internalType": "bool",
          "name": "",
          "type": "bool"
        }
      ],
      "stateMutability": "nonpayable",
      "type": "function"
    },
    {
      "inputs": [
        {
          "internalType": "address",
          "name": "from",
          "type": "address"
        },
        {
          "internalType": "address",
          "name": "to",
          "type": "address"
        },
        {
          "internalType": "uint256",
          "name": "amount",
          "type": "uint256"
        }
      ],
      "name": "transferFrom",
      "outputs": [
        {
          "internalType": "bool",
          "name": "",
          "type": "bool"
        }
      ],
      "stateMutability": "nonpayable",
      "type": "function"
    },
    {
      "inputs": [
        {
          "internalType": "address",
          "name": "newOwner",
          "type": "address"
        }
      ],
      "name": "transferOwnership",
      "outputs": [],
      "stateMutability": "nonpayable",
      "type": "function"
    },
    {
      "inputs": [],
      "name": "withdraw",
      "outputs": [],
      "stateMutability": "nonpayable",
      "type": "function"
    }
  ],
  "bytecode": "0x6080604052670de0b6b3a76400006006553480156200001d57600080fd5b506040516200276e3803806200276e8339818101604052810190620000439190620004b1565b8181816003908162000056919062000781565b50806004908162000068919062000781565b5050506200008b6200007f620000d060201b60201c565b620000d860201b60201c565b620000c833620000a06200019e60201b60201c565b600a620000ae9190620009f8565b60c8620000bc919062000a49565b620001a760201b60201c565b505062000b80565b600033905090565b6000600560009054906101000a900473ffffffffffffffffffffffffffffffffffffffff16905081600560006101000a81548173ffffffffffffffffffffffffffffffffffffffff021916908373ffffffffffffffffffffffffffffffffffffffff1602179055508173ffffffffffffffffffffffffffffffffffffffff168173ffffffffffffffffffffffffffffffffffffffff167f8be0079c531659141344cd1fd0a4f28419497f9722a3daafe3b4186f6b6457e060405160405180910390a35050565b60006012905090565b600073ffffffffffffffffffffffffffffffffffffffff168273ffffffffffffffffffffffffffffffffffffffff160362000219576040517f08c379a0000000000000000000000000000000000000000000000000000000008152600401620002109062000af5565b60405180910390fd5b6200022d600083836200031460201b60201c565b806002600082825462000241919062000b17565b92505081905550806000808473ffffffffffffffffffffffffffffffffffffffff1673ffffffffffffffffffffffffffffffffffffffff168152602001908152602001600020600082825401925050819055508173ffffffffffffffffffffffffffffffffffffffff16600073ffffffffffffffffffffffffffffffffffffffff167fddf252ad1be2c89b69c2b068fc378daa952ba7f163c4a11628f55a4df523b3ef83604051620002f4919062000b63565b60405180910390a362000310600083836200031960201b60201c565b5050565b505050565b505050565b6000604051905090565b600080fd5b600080fd5b600080fd5b600080fd5b6000601f19601f8301169050919050565b7f4e487b7100000000000000000000000000000000000000000000000000000000600052604160045260246000fd5b62000387826200033c565b810181811067ffffffffffffffff82111715620003a957620003a86200034d565b5b80604052505050565b6000620003be6200031e565b9050620003cc82826200037c565b919050565b600067ffffffffffffffff821115620003ef57620003ee6200034d565b5b620003fa826200033c565b9050602081019050919050565b60005b83811015620004275780820151818401526020810190506200040a565b60008484015250505050565b60006200044a6200044484620003d1565b620003b2565b90508281526020810184848401111562000469576200046862000337565b5b6200047684828562000407565b509392505050565b600082601f83011262000496576200049562000332565b5b8151620004a884826020860162000433565b91505092915050565b60008060408385031215620004cb57620004ca62000328565b5b600083015167ffffffffffffffff811115620004ec57620004eb6200032d565b5b620004fa858286016200047e565b925050602083015167ffffffffffffffff8111156200051e576200051d6200032d565b5b6200052c858286016200047e565b9150509250929050565b600081519050919050565b7f4e487b7100000000000000000000000000000000000000000000000000000000600052602260045260246000fd5b600060028204905060018216806200058957607f821691505b6020821081036200059f576200059e62000541565b5b50919050565b60008190508160005260206000209050919050565b60006020601f8301049050919050565b600082821b905092915050565b600060088302620006097fffffffffffffffffffffffffffffffffffffffffffffffffffffffffffffffff82620005ca565b620006158683620005ca565b95508019841693508086168417925050509392505050565b6000819050919050565b6000819050919050565b6000620006626200065c62000656846200062d565b62000637565b6200062d565b9050919050565b6000819050919050565b6200067e8362000641565b620006966200068d8262000669565b848454620005d7565b825550505050565b600090565b620006ad6200069e565b620006ba81848462000673565b505050565b5b81811015620006e257620006d6600082620006a3565b600181019050620006c0565b5050565b601f8211156200073157620006fb81620005a5565b6200070684620005ba565b8101602085101562000716578190505b6200072e6200072585620005ba565b830182620006bf565b50505b505050565b600082821c905092915050565b6000620007566000198460080262000736565b1980831691505092915050565b600062000771838362000743565b9150826002028217905092915050565b6200078c8262000536565b67ffffffffffffffff811115620007a857620007a76200034d565b5b620007b4825462000570565b620007c1828285620006e6565b600060209050601f831160018114620007f95760008415620007e4578287015190505b620007f0858262000763565b86555062000860565b601f1984166200080986620005a5565b60005b8281101562000833578489015182556001820191506020850194506020810190506200080c565b868310156200085357848901516200084f601f89168262000743565b8355505b6001600288020188555050505b505050505050565b7f4e487b7100000000000000000000000000000000000000000000000000000000600052601160045260246000fd5b60008160011c9050919050565b6000808291508390505b6001851115620008f657808604811115620008ce57620008cd62000868565b5b6001851615620008de5780820291505b8081029050620008ee8562000897565b9450620008ae565b94509492505050565b600082620009115760019050620009e4565b81620009215760009050620009e4565b81600181146200093a576002811462000945576200097b565b6001915050620009e4565b60ff8411156200095a576200095962000868565b5b8360020a91508482111562000974576200097362000868565b5b50620009e4565b5060208310610133831016604e8410600b8410161715620009b55782820a905083811115620009af57620009ae62000868565b5b620009e4565b620009c48484846001620008a4565b92509050818404811115620009de57620009dd62000868565b5b81810290505b9392505050565b600060ff82169050919050565b600062000a05826200062d565b915062000a1283620009eb565b925062000a417fffffffffffffffffffffffffffffffffffffffffffffffffffffffffffffffff8484620008ff565b905092915050565b600062000a56826200062d565b915062000a63836200062d565b925082820262000a73816200062d565b9150828204841483151762000a8d5762000a8c62000868565b5b5092915050565b600082825260208201905092915050565b7f45524332303a206d696e7420746f20746865207a65726f206164647265737300600082015250565b600062000add601f8362000a94565b915062000aea8262000aa5565b602082019050919050565b6000602082019050818103600083015262000b108162000ace565b9050919050565b600062000b24826200062d565b915062000b31836200062d565b925082820190508082111562000b4c5762000b4b62000868565b5b92915050565b62000b5d816200062d565b82525050565b600060208201905062000b7a600083018462000b52565b92915050565b611bde8062000b906000396000f3fe6080604052600436106101145760003560e01c8063715018a6116100a0578063d96a094a11610064578063d96a094a146103b5578063dd62ed3e146103d1578063de5f72fd1461040e578063f179b66d14610425578063f2fde38b1461046257610114565b8063715018a6146102ce5780638da5cb5b146102e557806395d89b4114610310578063a457c2d71461033b578063a9059cbb1461037857610114565b8063313ce567116100e7578063313ce567146101e957806339509351146102145780633ccfd60b1461025157806340c10f191461026857806370a082311461029157610114565b806306fdde0314610119578063095ea7b31461014457806318160ddd1461018157806323b872dd146101ac575b600080fd5b34801561012557600080fd5b5061012e61048b565b60405161013b9190611222565b60405180910390f35b34801561015057600080fd5b5061016b600480360381019061016691906112dd565b61051d565b6040516101789190611338565b60405180910390f35b34801561018d57600080fd5b50610196610540565b6040516101a39190611362565b60405180910390f35b3480156101b857600080fd5b506101d360048036038101906101ce919061137d565b61054a565b6040516101e09190611338565b60405180910390f35b3480156101f557600080fd5b506101fe610579565b60405161020b91906113ec565b60405180910390f35b34801561022057600080fd5b5061023b600480360381019061023691906112dd565b610582565b6040516102489190611338565b60405180910390f35b34801561025d57600080fd5b506102666105b9565b005b34801561027457600080fd5b5061028f600480360381019061028a91906112dd565b61060a565b005b34801561029d57600080fd5b506102b860048036038101906102b39190611407565b610618565b6040516102c59190611362565b60405180910390f35b3480156102da57600080fd5b506102e3610660565b005b3480156102f157600080fd5b506102fa610674565b6040516103079190611443565b60405180910390f35b34801561031c57600080fd5b5061032561069e565b6040516103329190611222565b60405180910390f35b34801561034757600080fd5b50610362600480360381019061035d91906112dd565b610730565b60405161036f9190611338565b60405180910390f35b34801561038457600080fd5b5061039f600480360381019061039a91906112dd565b6107a7565b6040516103ac9190611338565b60405180910390f35b6103cf60048036038101906103ca919061145e565b6107ca565b005b3480156103dd57600080fd5b506103f860048036038101906103f3919061148b565b61081a565b6040516104059190611362565b60405180910390f35b34801561041a57600080fd5b506104236108a1565b005b34801561043157600080fd5b5061044c60048036038101906104479190611407565b610980565b6040516104599190611362565b60405180910390f35b34801561046e57600080fd5b5061048960048036038101906104849190611407565b610998565b005b60606003805461049a906114fa565b80601f01602080910402602001604051908101604052809291908181526020018280546104c6906114fa565b80156105135780601f106104e857610100808354040283529160200191610513565b820191906000526020600020905b8154815290600101906020018083116104f657829003601f168201915b5050505050905090565b600080610528610a1b565b9050610535818585610a23565b600191505092915050565b6000600254905090565b600080610555610a1b565b9050610562858285610bec565b61056d858585610c78565b60019150509392505050565b60006012905090565b60008061058d610a1b565b90506105ae81858561059f858961081a565b6105a9919061155a565b610a23565b600191505092915050565b6105c1610eee565b3373ffffffffffffffffffffffffffffffffffffffff166108fc479081150290604051600060405180830381858888f19350505050158015610607573d6000803e3d6000fd5b50565b6106148282610f6c565b5050565b60008060008373ffffffffffffffffffffffffffffffffffffffff1673ffffffffffffffffffffffffffffffffffffffff168152602001908152602001600020549050919050565b610668610eee565b61067260006110c2565b565b6000600560009054906101000a900473ffffffffffffffffffffffffffffffffffffffff16905090565b6060600480546106ad906114fa565b80601f01602080910402602001604051908101604052809291908181526020018280546106d9906114fa565b80156107265780601f106106fb57610100808354040283529160200191610726565b820191906000526020600020905b81548152906001019060200180831161070957829003601f168201915b5050505050905090565b60008061073b610a1b565b90506000610749828661081a565b90508381101561078e576040517f08c379a000000000000000000000000000000000000000000000000000000000815260040161078590611600565b60405180910390fd5b61079b8286868403610a23565b60019250505092915050565b6000806107b2610a1b565b90506107bf818585610c78565b600191505092915050565b6000341161080d576040517f08c379a00000000000000000000000000000000000000000000000000000000081526004016108049061166c565b60405180910390fd5b6108173382610f6c565b50565b6000600160008473ffffffffffffffffffffffffffffffffffffffff1673ffffffffffffffffffffffffffffffffffffffff16815260200190815260200160002060008373ffffffffffffffffffffffffffffffffffffffff1673ffffffffffffffffffffffffffffffffffffffff16815260200190815260200160002054905092915050565b42600760003373ffffffffffffffffffffffffffffffffffffffff1673ffffffffffffffffffffffffffffffffffffffff1681526020019081526020016000205410610922576040517f08c379a0000000000000000000000000000000000000000000000000000000008152600401610919906116d8565b60405180910390fd5b61092e33600654610f6c565b603c4261093b919061155a565b600760003373ffffffffffffffffffffffffffffffffffffffff1673ffffffffffffffffffffffffffffffffffffffff16815260200190815260200160002081905550565b60076020528060005260406000206000915090505481565b6109a0610eee565b600073ffffffffffffffffffffffffffffffffffffffff168173ffffffffffffffffffffffffffffffffffffffff1603610a0f576040517f08c379a0000000000000000000000000000000000000000000000000000000008152600401610a069061176a565b60405180910390fd5b610a18816110c2565b50565b600033905090565b600073ffffffffffffffffffffffffffffffffffffffff168373ffffffffffffffffffffffffffffffffffffffff1603610a92576040517f08c379a0000000000000000000000000000000000000000000000000000000008152600401610a89906117fc565b60405180910390fd5b600073ffffffffffffffffffffffffffffffffffffffff168273ffffffffffffffffffffffffffffffffffffffff1603610b01576040517f08c379a0000000000000000000000000000000000000000000000000000000008152600401610af89061188e565b60405180910390fd5b80600160008573ffffffffffffffffffffffffffffffffffffffff1673ffffffffffffffffffffffffffffffffffffffff16815260200190815260200160002060008473ffffffffffffffffffffffffffffffffffffffff1673ffffffffffffffffffffffffffffffffffffffff168152602001908152602001600020819055508173ffffffffffffffffffffffffffffffffffffffff168373ffffffffffffffffffffffffffffffffffffffff167f8c5be1e5ebec7d5bd14f71427d1e84f3dd0314c0f7b2291e5b200ac8c7c3b92583604051610bdf9190611362565b60405180910390a3505050565b6000610bf8848461081a565b90507fffffffffffffffffffffffffffffffffffffffffffffffffffffffffffffffff8114610c725781811015610c64576040517f08c379a0000000000000000000000000000000000000000000000000000000008152600401610c5b906118fa565b60405180910390fd5b610c718484848403610a23565b5b50505050565b600073ffffffffffffffffffffffffffffffffffffffff168373ffffffffffffffffffffffffffffffffffffffff1603610ce7576040517f08c379a0000000000000000000000000000000000000000000000000000000008152600401610cde9061198c565b60405180910390fd5b600073ffffffffffffffffffffffffffffffffffffffff168273ffffffffffffffffffffffffffffffffffffffff1603610d56576040517f08c379a0000000000000000000000000000000000000000000000000000000008152600401610d4d90611a1e565b60405180910390fd5b610d61838383611188565b60008060008573ffffffffffffffffffffffffffffffffffffffff1673ffffffffffffffffffffffffffffffffffffffff16815260200190815260200160002054905081811015610de7576040517f08c379a0000000000000000000000000000000000000000000000000000000008152600401610dde90611ab0565b60405180910390fd5b8181036000808673ffffffffffffffffffffffffffffffffffffffff1673ffffffffffffffffffffffffffffffffffffffff16815260200190815260200160002081905550816000808573ffffffffffffffffffffffffffffffffffffffff1673ffffffffffffffffffffffffffffffffffffffff168152602001908152602001600020600082825401925050819055508273ffffffffffffffffffffffffffffffffffffffff168473ffffffffffffffffffffffffffffffffffffffff167fddf252ad1be2c89b69c2b068fc378daa952ba7f163c4a11628f55a4df523b3ef84604051610ed59190611362565b60405180910390a3610ee884848461118d565b50505050565b610ef6610a1b565b73ffffffffffffffffffffffffffffffffffffffff16610f14610674565b73ffffffffffffffffffffffffffffffffffffffff1614610f6a576040517f08c379a0000000000000000000000000000000000000000000000000000000008152600401610f6190611b1c565b60405180910390fd5b565b600073ffffffffffffffffffffffffffffffffffffffff168273ffffffffffffffffffffffffffffffffffffffff1603610fdb576040517f08c379a0000000000000000000000000000000000000000000000000000000008152600401610fd290611b88565b60405180910390fd5b610fe760008383611188565b8060026000828254610ff9919061155a565b92505081905550806000808473ffffffffffffffffffffffffffffffffffffffff1673ffffffffffffffffffffffffffffffffffffffff168152602001908152602001600020600082825401925050819055508173ffffffffffffffffffffffffffffffffffffffff16600073ffffffffffffffffffffffffffffffffffffffff167fddf252ad1be2c89b69c2b068fc378daa952ba7f163c4a11628f55a4df523b3ef836040516110aa9190611362565b60405180910390a36110be6000838361118d565b5050565b6000600560009054906101000a900473ffffffffffffffffffffffffffffffffffffffff16905081600560006101000a81548173ffffffffffffffffffffffffffffffffffffffff021916908373ffffffffffffffffffffffffffffffffffffffff1602179055508173ffffffffffffffffffffffffffffffffffffffff168173ffffffffffffffffffffffffffffffffffffffff167f8be0079c531659141344cd1fd0a4f28419497f9722a3daafe3b4186f6b6457e060405160405180910390a35050565b505050565b505050565b600081519050919050565b600082825260208201905092915050565b60005b838110156111cc5780820151818401526020810190506111b1565b60008484015250505050565b6000601f19601f8301169050919050565b60006111f482611192565b6111fe818561119d565b935061120e8185602086016111ae565b611217816111d8565b840191505092915050565b6000602082019050818103600083015261123c81846111e9565b905092915050565b600080fd5b600073ffffffffffffffffffffffffffffffffffffffff82169050919050565b600061127482611249565b9050919050565b61128481611269565b811461128f57600080fd5b50565b6000813590506112a18161127b565b92915050565b6000819050919050565b6112ba816112a7565b81146112c557600080fd5b50565b6000813590506112d7816112b1565b92915050565b600080604083850312156112f4576112f3611244565b5b600061130285828601611292565b9250506020611313858286016112c8565b9150509250929050565b60008115159050919050565b6113328161131d565b82525050565b600060208201905061134d6000830184611329565b92915050565b61135c816112a7565b82525050565b60006020820190506113776000830184611353565b92915050565b60008060006060848603121561139657611395611244565b5b60006113a486828701611292565b93505060206113b586828701611292565b92505060406113c6868287016112c8565b9150509250925092565b600060ff82169050919050565b6113e6816113d0565b82525050565b600060208201905061140160008301846113dd565b92915050565b60006020828403121561141d5761141c611244565b5b600061142b84828501611292565b91505092915050565b61143d81611269565b82525050565b60006020820190506114586000830184611434565b92915050565b60006020828403121561147457611473611244565b5b6000611482848285016112c8565b91505092915050565b600080604083850312156114a2576114a1611244565b5b60006114b085828601611292565b92505060206114c185828601611292565b9150509250929050565b7f4e487b7100000000000000000000000000000000000000000000000000000000600052602260045260246000fd5b6000600282049050600182168061151257607f821691505b602082108103611525576115246114cb565b5b50919050565b7f4e487b7100000000000000000000000000000000000000000000000000000000600052601160045260246000fd5b6000611565826112a7565b9150611570836112a7565b92508282019050808211156115885761158761152b565b5b92915050565b7f45524332303a2064656372656173656420616c6c6f77616e63652062656c6f7760008201527f207a65726f000000000000000000000000000000000000000000000000000000602082015250565b60006115ea60258361119d565b91506115f58261158e565b604082019050919050565b60006020820190508181036000830152611619816115dd565b9050919050565b7f73656e64206d6f6e657900000000000000000000000000000000000000000000600082015250565b6000611656600a8361119d565b915061166182611620565b602082019050919050565b6000602082019050818103600083015261168581611649565b9050919050565b7f6e65656420746f2077616974206d6f72652074696d6500000000000000000000600082015250565b60006116c260168361119d565b91506116cd8261168c565b602082019050919050565b600060208201905081810360008301526116f1816116b5565b9050919050565b7f4f776e61626c653a206e6577206f776e657220697320746865207a65726f206160008201527f6464726573730000000000000000000000000000000000000000000000000000602082015250565b600061175460268361119d565b915061175f826116f8565b604082019050919050565b6000602082019050818103600083015261178381611747565b9050919050565b7f45524332303a20617070726f76652066726f6d20746865207a65726f2061646460008201527f7265737300000000000000000000000000000000000000000000000000000000602082015250565b60006117e660248361119d565b91506117f18261178a565b604082019050919050565b60006020820190508181036000830152611815816117d9565b9050919050565b7f45524332303a20617070726f766520746f20746865207a65726f20616464726560008201527f7373000000000000000000000000000000000000000000000000000000000000602082015250565b600061187860228361119d565b91506118838261181c565b604082019050919050565b600060208201905081810360008301526118a78161186b565b9050919050565b7f45524332303a20696e73756666696369656e7420616c6c6f77616e6365000000600082015250565b60006118e4601d8361119d565b91506118ef826118ae565b602082019050919050565b60006020820190508181036000830152611913816118d7565b9050919050565b7f45524332303a207472616e736665722066726f6d20746865207a65726f20616460008201527f6472657373000000000000000000000000000000000000000000000000000000602082015250565b600061197660258361119d565b91506119818261191a565b604082019050919050565b600060208201905081810360008301526119a581611969565b9050919050565b7f45524332303a207472616e7366657220746f20746865207a65726f206164647260008201527f6573730000000000000000000000000000000000000000000000000000000000602082015250565b6000611a0860238361119d565b9150611a13826119ac565b604082019050919050565b60006020820190508181036000830152611a37816119fb565b9050919050565b7f45524332303a207472616e7366657220616d6f756e742065786365656473206260008201527f616c616e63650000000000000000000000000000000000000000000000000000602082015250565b6000611a9a60268361119d565b9150611aa582611a3e565b604082019050919050565b60006020820190508181036000830152611ac981611a8d565b9050919050565b7f4f776e61626c653a2063616c6c6572206973206e6f7420746865206f776e6572600082015250565b6000611b0660208361119d565b9150611b1182611ad0565b602082019050919050565b60006020820190508181036000830152611b3581611af9565b9050919050565b7f45524332303a206d696e7420746f20746865207a65726f206164647265737300600082015250565b6000611b72601f8361119d565b9150611b7d82611b3c565b602082019050919050565b60006020820190508181036000830152611ba181611b65565b905091905056fea2646970667358221220e188329fb1846d82f2e7676ba2b23087e2703c960e7bd5488fa26436dab570f764736f6c63430008120033",
  "linkReferences": {},
  "deployedLinkReferences": {}
}